:100000000A128A11FC2F00308A000408840A820731
:10001000003445344D34423445344434443445345A
:1000200044342034533459345334543445344D34E7
:06003000533420340034BB
:100DEC00F001F10103307102E930031970020318AC
:100DFC0008000130F0070318F10A0030F107F82E53
:100E0C00F600760884000A128A1103200A128A114D
:100E1C00003A03190800760884000A128A1103208C
:100E2C000A128A110A128A117B270A128A110130BE
:100E3C00F5007508F607072F02300A128A113F27B2
:100E4C000A128A1128300A128A113F270A128A11B3
:100E5C000E300A128A113F270A128A1106300A1222
:100E6C008A113F270A128A1180300A128A113F27F1
:100E7C000800F4008312031308110F30F2007208FB
:100E8C0086057408F039F2007208860488150A1277
:100E9C008A11F6260A128A118312031388110A1278
:100EAC008A11F6260A128A110F30F2007208831288
:100EBC00031386057408F20003300310F20DFF3E95
:100ECC00031D632F0310720DF039F30073088604B1
:100EDC0088150A128A11F6260A128A118312031334
:100EEC0088110A128A11F6260800F40083120313E3
:100EFC0008150F30F200720886057408F039F200FC
:100F0C007208860488150A128A11F6260A128A11AA
:100F1C008312031388110A128A11F6260A128A11F7
:100F2C000F30F20072088312031386057408F20066
:100F3C0003300310F20DFF3E031D9F2F0310720DA3
:100F4C00F039F3007308860488150A128A11F62604
:100F5C000A128A118312031388110A128A11F626B7
:100F6C00080083160313881108110030081901308A
:100F7C0086000A128A1122270A128A1190300A124C
:100F8C008A113F270A128A1101300A128A11062788
:100F9C000A128A11F701F8013A30780298300319D5
:100FAC0077020318E62F0130F7070318F80A003010
:100FBC00F8073A307802983003197702031CD92FBE
:100FCC0018300A128A113F270A128A11F701F80108
:100FDC003A3078029830031977020318D02F013079
:100FEC00F7070318F80A0030F807EE2F83010A12EE
:040FFC008A11B72F70
:08400000FF3FFF3FFF3FFF3FC0
:02400E00FF3F72
:00000001FF
