:100000000A128A11F32F00308A000408840A82073A
:100010000034543469346D3465343A340034443433
:0A0020006134743465343A3400345E
:100B6E00F90079080F39303E0800831203138C1DEB
:100B7E00BC2D8C1108008316031391140A128A11CE
:100B8E00BC2508008316031311150A128A11BC2501
:100B9E00080083160313911611160A128A11BC252A
:100BAE0008008316031391150A128A11BC258312AD
:100BBE00031313080800FA007A08F9000430031032
:100BCE00F90CFF3E031DE62D7908303E0800F900B2
:100BDE0079088312031393000A128A11BC250A1294
:100BEE008A1183160313111F0800F82D83160313A1
:100BFE000716071E062E831603138715092E831656
:100C0E00031387112830831203139400FF308316C9
:100C1E0003139300080083160313860188013830EE
:100C2E000A128A1149260A128A110C300A128A11E6
:100C3E0049260A128A1106300A128A1149260A1208
:100C4E008A1180300A128A1149260800FB007B089F
:100C5E0084000A128A1103200A128A11003A03191B
:100C6E0008007B0884000A128A1103200A128A11D6
:100C7E000A128A1173260A128A110130FA007A08B2
:100C8E00FB072E2EF9007908831203138800061035
:100C9E0086100615F001F1017108803AFF008330CD
:100CAE007F02031D5C2EE830700203186F2E013098
:100CBE00F0070318F10A0030F1077108803AFF00BF
:100CCE0083307F02031D6D2EE8307002031C5E2EF2
:100CDE008312031306110800F90079088312031317
:100CEE008800061486100615F001F1017108803A8D
:100CFE00FF0083307F02031D862EE830700203183A
:100D0E00992E0130F0070318F10A0030F10771082F
:100D1E00803AFF0083307F02031D972EE830700269
:100D2E00031C882E8312031306110800FB000A12FF
:100D3E008A11C2250A128A11D0308312031393002E
:100D4E000A128A11BC250A128A1183160313111B6B
:100D5E009E2E7B080A128A11EE250A128A110A1299
:100D6E008A11C2250A128A11D1300A128A11EE2571
:100D7E000A128A110A128A11D8250A128A11FA0049
:100D8E007A08FC000A128A11D0250A128A110A1258
:100D9E008A11C9257C0808000A128A1112260A1225
:100DAE008A1101300A128A112D260A128A11C030B8
:100DBE000A128A1149260A128A1107300A128A115A
:100DCE002D260A128A110A128A11FD250A128A117B
:100DDE0000300A128A119D260A128A11FD007D0822
:100DEE00F80001300A128A119D260A128A11FD009E
:100DFE007D08F70002300A128A119D260A128A1106
:100E0E00FD007D08F60003300A128A119D260A1293
:100E1E008A11FD007D08F50004300A128A119D2604
:100E2E000A128A11FD007D08F40005300A128A119B
:100E3E009D260A128A11FD007D08F30006300A1263
:100E4E008A119D260A128A11FD007D08F200853056
:100E5E000A128A1149260A128A1176080A128A1172
:100E6E00E2250A128A110A128A1173260A128A11AF
:100E7E0076080A128A11B7250A128A110A128A11E5
:100E8E0073260A128A113A300A128A1173260A122E
:100E9E008A1177080A128A11E2250A128A110A1299
:100EAE008A1173260A128A1177080A128A11B72537
:100EBE000A128A110A128A1173260A128A113A30FC
:100ECE000A128A1173260A128A1178080A128A11D6
:100EDE00E2250A128A110A128A1173260A128A113F
:100EEE0078080A128A11B7250A128A110A128A1173
:100EFE0073260A128A11C5300A128A1149260A125D
:100F0E008A1174080A128A11E2250A128A110A122B
:100F1E008A1173260A128A1174080A128A11B725C9
:100F2E000A128A110A128A1173260A128A113A308B
:100F3E000A128A1173260A128A1173080A128A116A
:100F4E00E2250A128A110A128A1173260A128A11CE
:100F5E0073080A128A11B7250A128A110A128A1107
:100F6E0073260A128A113A300A128A1173260A124D
:100F7E008A1172080A128A11E2250A128A110A12BD
:100F8E008A1173260A128A1172080A128A11B7255B
:100F9E000A128A110A128A1173260A128A112F3026
:100FAE000A128A1173260A128A1175080A128A11F8
:100FBE00E2250A128A110A128A1173260A128A115E
:100FCE0075080A128A11B7250A128A110A128A1195
:100FDE0073260A128A11EF2EF001F101F201F301CC
:100FEE00F401F501F601F701F80183010A128A11E5
:020FFE00D32EF0
:08400000FF3FFF3FFF3FFF3FC0
:02400E007A3FF7
:00000001FF
