:060000000A128A11FC2F18
:100AC000831603131114111C0800632D83160313DE
:100AD0001115111D0800692D83160313911583123A
:100AE0008C1D6F2D8C1113080800F0007008831204
:100AF000031393008C1D7A2D8C110800283083126B
:100B00000313940009308316031393009401080023
:100B100072088312031388000710871007150A1242
:100B20008A11A42583120313071108007208831287
:100B3000031388000714871007150A128A11A425C9
:100B40008312031307110800F001F1017108803AC4
:100B5000FF0083307F02031DAF2DE83070020318C1
:100B600008000130F0070318F10A0030F107A62D44
:100B70003830F2000030F3000A128A1188250A1278
:100B80008A110C30F2000030F3000A128A11882515
:100B90000A128A110630F2000030F3000A128A119C
:100BA00088250A128A110130F2000030F3000A127F
:100BB0008A1188250A128A118030F2000030F30071
:100BC0000A128A1188250800F601F31FEE2DF2099A
:100BD000F309F20A0319F30AF601F60AF11FF52DDB
:100BE000F009F109F00A0319F10A700871040319F8
:100BF000222EF501F50AF11B092E01300310F00D2C
:100C0000F10DFF3E031DFE2D0130F4007408F507C1
:100C1000FB2D71087302031D0F2E70087202031C56
:100C2000172E7008F2027108031CF303F30201305F
:100C30000310F10CF00CFF3E031D182E0130F502DD
:100C4000031D092E760803192A2EF209F309F20A68
:100C50000319F30A7308F1007208F0000800F601A6
:100C6000F11F392EF009F109F00A0319F10AF60112
:100C7000F60AF31F442EF209F309F20A0319F30AE4
:100C80000130F4007408F606F701F80170087104E9
:100C900003197B2EF501F50AF11B5A2E01300310C2
:100CA000F00DF10DFF3E031D4F2E0130F4007408CE
:100CB000F5074C2E01300310F70DF80DFF3E031D14
:100CC0005B2E71087302031D672E70087202031CED
:100CD000702E7008F2027108031CF303F3027714FC
:100CE00001300310F10CF00CFF3E031D712E01309A
:100CF000F502031D5A2E76080319832EF709F80909
:100D0000F70A0319F80A7808F1007708F0000800DC
:100D100083160313871507168801860107108710AD
:100D200007110A128A117E250A128A110A128A11E3
:100D300060250A128A1190300A128A1175250A124A
:100D40008A1101300A128A1175250A128A11C330DC
:100D50000A128A1175250A128A110330FD008A30A1
:100D6000FC005530FB00FB0BB32EFC0BB32EFD0B30
:100D7000B32EBA2E0A128A1160250A128A119030F7
:100D80000A128A1175250A128A110330FD008A3071
:100D9000FC005530FB00FB0BCB2EFC0BCB2EFD0BD0
:100DA000CB2ED22E00300A128A1175250A128A1112
:100DB0000330FD008A30FC005530FB00FB0BDE2EBB
:100DC000FC0BDE2EFD0BDE2EE52E0A128A116025AD
:100DD0000A128A1191300A128A1175250A128A1193
:100DE0000330FD008A30FC005530FB00FB0BF62E73
:100DF000FC0BF62EFD0BF62EFD2E0A128A116C2529
:100E00000A128A110A128A116C250A128A11FB0031
:100E1000FC017B0883120313B6007C08B700370877
:100E2000FA003608F9000A128A1136270A128A11C6
:100E30000A128A1166250A128A11831203133708CF
:100E4000FA003608F9000A128A1136270A128A11A6
:100E50001A30FD005E30FC006E30FB00FB0B2E2FC5
:100E6000FC0B2E2FFD0B2E2F0000962E0A128A113E
:100E7000B8250A128A117A0883120313B10079087F
:100E8000B0000A30F0000030F1003108F300300803
:100E9000F2000A128A112F260A128A11710883128F
:100EA0000313B3007008B2000A30F0000030F10004
:100EB0003108F3003008F2000A128A11E4250A1200
:100EC0008A11710883120313A1007008A0000A3070
:100ED000F0000030F1003308F3003208F2000A128B
:100EE0008A112F260A128A11710883120313B50082
:100EF0007008B4000A30F0000030F1003308F3004D
:100F00003208F2000A128A11E4250A128A117108C5
:100F100083120313A3007008A2000A30F00000300F
:100F2000F1003508F3003408F2000A128A112F2666
:100F30000A128A11710883120313A5007008A40015
:100F40000A30F0000030F1003508F3003408F200F8
:100F50000A128A11E4250A128A11710883120313F6
:100F6000A7007008A6002408303EA8002508031832
:100F7000013E003EA9002908F3002808F2000A12E9
:100F80008A1196250A128A11831203132608303E0D
:100F9000AA0027080318013E003EAB002B08F3000F
:100FA0002A08F2000A128A1196250A128A1183125F
:100FB00003132208303EAC0023080318013E003E14
:100FC000AD002D08F3002C08F2000A128A119625B4
:100FD0000A128A11831203132008303EAE00210842
:100FE0000318013E003EAF002F08F3002E08F20068
:100FF0000A128A119625080083010A128A11882E86
:08400000FF3FFF3FFF3FFF3FC0
:02400E00FA3F77
:00000001FF
