:060000000A128A11F02F24
:100CDC007E088A007F0882006E260A128A11800024
:100CEC00840A04087D0603190034FF0A0319FE0A5E
:100CFC00722EC0340034F9340034A4340034B034CF
:100D0C000034993400349234003482340034F83492
:100D1C0000348034003490340034F001F101710857
:100D2C00803AFF0083307F02031D9E2EE830700254
:100D3C0003180800F201F3017308803AFF008030B9
:100D4C007F02031DAB2E643072020318BE2E0130DD
:100D5C00F2070318F30A0030F3077308803AFF0018
:100D6C0080307F02031DBC2E64307202031CAD2E3A
:100D7C000130F0070318F10A0030F107952EF60147
:100D8C00F31FCF2EF209F309F20A0319F30AF60145
:100D9C00F60AF11FD62EF009F109F00A0319F10A2F
:100DAC00700871040319032FF501F50AF11BEA2EE3
:100DBC0001300310F00DF10DFF3E031DDF2E01304D
:100DCC00F4007408F507DC2E71087302031DF02E75
:100DDC0070087202031CF82E7008F2027108031CD2
:100DEC00F303F30201300310F10CF00CFF3E031D72
:100DFC00F92E0130F502031DEA2E760803190B2F8C
:100E0C00F209F309F20A0319F30A7308F1007208E4
:100E1C00F0000800F601F11F1A2FF009F109F00A91
:100E2C000319F10AF601F60AF31F252FF209F3094B
:100E3C00F20A0319F30A0130F4007408F606F701FC
:100E4C00F8017008710403195C2FF501F50AF11B08
:100E5C003B2F01300310F00DF10DFF3E031D302F21
:100E6C000130F4007408F5072D2F01300310F70D35
:100E7C00F80DFF3E031D3C2F71087302031D482F14
:100E8C0070087202031C512F7008F2027108031CC7
:100E9C00F303F302771401300310F10CF00CFF3E56
:100EAC00031D522F0130F502031D3B2F7608031949
:100EBC00642FF709F809F70A0319F80A7808F10002
:100ECC007708F000080083160313880106108610BB
:100EDC00203084003830F9000408FA001430FB008C
:100EEC007908840083130008FC00F90A7A0884004E
:100EFC007C088000FA0AFB0B762F83120313B601D1
:100F0C00B7013708803AFF0080307F02031D902F15
:100F1C00643036020318ED2F0A30F0000030F10077
:100F2C00831203133708F3003608F2000A128A11F1
:100F3C00C5260A128A11710883120313B5007008B2
:100F4C00B400061486103408F9007907203E84009A
:100F5C008313000888000A128A1193260A128A1138
:100F6C000A30F0000030F100831203133708F3004D
:100F7C003608F2000A128A1110270A128A11710817
:100F8C0083120313B5007008B400061086143408DD
:100F9C00F9007907203E84008313000888000A12A8
:100FAC008A1193260A128A11013083120313B60791
:100FBC000318B70A0030B7073708803AFF008030B3
:100FCC007F02031DEB2F64303602031C922F0A1292
:100FDC008A11002883134C30FD000630FE007F3050
:100FEC00FF00383084000A128A11722683010A121B
:040FFC008A11692FBE
:08400000FF3FFF3FFF3FFF3FC0
:02400E00FA3F77
:00000001FF
