:060000000A128A11FC2F18
:100F7E00831603130614861006118312031306112B
:100F8E00861008000A128A11BF270A128A118312CC
:100F9E000313061CCE2F0D30F200AF30F100B63029
:100FAE00F000F00BD82FF10BD82FF20BD82F00003A
:100FBE0083120313061CCE2F0310061D0314031CED
:100FCE00EC2F831203130615EF2F83120313061152
:100FDE000310861C0314031CF82F831203138614AC
:100FEE00CE2F831203138610CE2F83010A128A117D
:020FFE00C92FF9
:08400000FF3FFF3FFF3FFF3FC0
:04400E00FFFFFFFFB2
:00000001FF
