:060000000A128A11FC2F18
:100ABE00831203138C1D5F2D8C11080083160313F4
:100ACE0011140A128A115F250800831603131115DB
:100ADE000A128A115F25080083160313911211164C
:100AEE000A128A115F250800831603139116111638
:100AFE000A128A115F2508008316031391150A1234
:100B0E008A115F25831203131308080072088312DB
:100B1E00031388000710871007150A128A11B825CB
:100B2E00831203130711080072088312031388003F
:100B3E000714871007150A128A11B825831203139A
:100B4E0007110800F00070088312031393000A12B5
:100B5E008A115F250A128A1183160313111F0800CA
:100B6E00B32DF001F1017108803AFF0083307F024E
:100B7E00031DC32DE8307002031808000130F00782
:100B8E000318F10A0030F107BA2D3830F2000030A8
:100B9E00F3000A128A118D250A128A110C30F20006
:100BAE000030F3000A128A118D250A128A110630BE
:100BBE00F2000030F3000A128A118D250A128A11F2
:100BCE000130F2000030F3000A128A118D250A124C
:100BDE008A118030F2000030F3000A128A118D253E
:100BEE000800700871040319252EF501F50AF11B92
:100BFE000C2E01300310F00DF10DFF3E031D012EE2
:100C0E000130F4007408F507FE2D71087302031D00
:100C1E00122E70087202031C1A2E7008F20271084E
:100C2E00031CF303F30201300310F10CF00CFF3E32
:100C3E00031D1B2E0130F502031D0C2E7308F1004F
:100C4E007208F0000800F501F6017008710403192E
:100C5E00612EF701F70AF11B402E01300310F00D43
:100C6E00F10DFF3E031D352E0130F4007408F70719
:100C7E00322E01300310F50DF60DFF3E031D412EF1
:100C8E0071087302031D4D2E70087202031C562E3E
:100C9E007008F2027108031CF303F302751401309D
:100CAE000310F10CF00CFF3E031D572E0130F7021E
:100CBE00031D402E7608F1007508F000080083161B
:100CCE0003130710871007118801283083120313AE
:100CDE00940009308316031393000A128A116525B6
:100CEE000A128A1190300A128A11A9250A128A1143
:100CFE0001300A128A11A9250A128A11C2300A126B
:100D0E008A11A9250A128A1103300A128A11A925FD
:100D1E000A128A110A128A116C250A128A110D30D2
:100D2E00FB00FB30FA00FA0B9A2EFB0B9A2E9F2E2D
:100D3E00FC01FD010A128A1165250A128A119030F2
:100D4E000A128A11A9250A128A1100300A128A1172
:100D5E00A9250A128A110A128A116C250A128A1101
:100D6E000D30FB00FB30FA00FA0BBB2EFB0BBB2E3B
:100D7E00C02E0A128A1165250A128A1191300A12A2
:100D8E008A11A9250A128A110A128A1183250A12BA
:100D9E008A11FA00FB017A08FC047B08FD040A1292
:100DAE008A1173250A128A110A128A1183250A12D0
:100DBE008A11FA00FB017A08FB00FA017A08FC049A
:100DCE007B08FD040A128A117B250A128A110A1267
:100DDE008A116C250A128A117D08F9007C08F80028
:100DEE000A128A11FD260A128A119F2E0A128A11E0
:100DFE00CC250A128A11790883120313B5007808DC
:100E0E00B4000A30F0000030F1003508F300340869
:100E1E00F2000A128A112A260A128A117108831206
:100E2E000313B7007008B6000A30F0000030F1006E
:100E3E003508F3003408F2000A128A11F8250A1256
:100E4E008A11710883120313A1007008A0000A30E2
:100E5E00F0000030F1003708F3003608F2000A12F5
:100E6E008A112A260A128A11710883120313B900F5
:100E7E007008B8000A30F0000030F1003708F300B7
:100E8E003608F2000A128A11F8250A128A11710820
:100E9E0083120313A3007008A2000A30F000003082
:100EAE00F1003908F3003808F2000A128A112A26D6
:100EBE000A128A11710883120313BB007008BA005C
:100ECE000A30F0000030F1003908F3003808F20063
:100EDE000A128A11F8250A128A1171088312031355
:100EEE00A5007008A4000A30F0000030F1003B08A5
:100EFE00F3003A08F2000A128A112A260A128A11FF
:100F0E00710883120313B3007008B2000A30F000A8
:100F1E000030F1003B08F3003A08F2000A128A1181
:100F2E00F8250A128A11710883120313AF00700894
:100F3E00AE003208303EB00033080318013E003ECA
:100F4E00B1003108F3003008F2000A128A119B2515
:100F5E000A128A11831203132E08303EA6002F08A0
:100F6E000318013E003EA7002708F3002608F200F2
:100F7E000A128A119B250A128A118312031324085E
:100F8E00303EA80025080318013E003EA90029089E
:100F9E00F3002808F2000A128A119B250A128A1100
:100FAE00831203132208303EAA0023080318013EC1
:100FBE00003EAB002B08F3002A08F2000A128A1139
:100FCE009B250A128A11831203132008303EAC00AF
:100FDE0021080318013E003EAD002D08F3002C0839
:100FEE00F2000A128A119B25080083010A128A1147
:020FFE00662E5D
:08400000FF3FFF3FFF3FFF3FC0
:02400E00FA3F77
:00000001FF
